{
  "contractName": "Ricardo",
  "abi": [
    {
      "inputs": [],
      "stateMutability": "nonpayable",
      "type": "constructor"
    },
    {
      "anonymous": false,
      "inputs": [
        {
          "indexed": true,
          "internalType": "address",
          "name": "_owner",
          "type": "address"
        },
        {
          "indexed": true,
          "internalType": "address",
          "name": "_spender",
          "type": "address"
        },
        {
          "indexed": false,
          "internalType": "uint256",
          "name": "_value",
          "type": "uint256"
        }
      ],
      "name": "Approval",
      "type": "event"
    },
    {
      "anonymous": false,
      "inputs": [
        {
          "indexed": true,
          "internalType": "address",
          "name": "_from",
          "type": "address"
        },
        {
          "indexed": true,
          "internalType": "address",
          "name": "_to",
          "type": "address"
        },
        {
          "indexed": false,
          "internalType": "uint256",
          "name": "_value",
          "type": "uint256"
        }
      ],
      "name": "Transfer",
      "type": "event"
    },
    {
      "inputs": [],
      "name": "name",
      "outputs": [
        {
          "internalType": "string",
          "name": "",
          "type": "string"
        }
      ],
      "stateMutability": "view",
      "type": "function",
      "constant": true
    },
    {
      "inputs": [],
      "name": "symbol",
      "outputs": [
        {
          "internalType": "string",
          "name": "",
          "type": "string"
        }
      ],
      "stateMutability": "view",
      "type": "function",
      "constant": true
    },
    {
      "inputs": [],
      "name": "decimals",
      "outputs": [
        {
          "internalType": "uint8",
          "name": "",
          "type": "uint8"
        }
      ],
      "stateMutability": "view",
      "type": "function",
      "constant": true
    },
    {
      "inputs": [],
      "name": "totalSupply",
      "outputs": [
        {
          "internalType": "uint256",
          "name": "",
          "type": "uint256"
        }
      ],
      "stateMutability": "view",
      "type": "function",
      "constant": true
    },
    {
      "inputs": [
        {
          "internalType": "address",
          "name": "_owner",
          "type": "address"
        }
      ],
      "name": "balanceOf",
      "outputs": [
        {
          "internalType": "uint256",
          "name": "balance",
          "type": "uint256"
        }
      ],
      "stateMutability": "view",
      "type": "function",
      "constant": true
    },
    {
      "inputs": [],
      "name": "getOwner",
      "outputs": [
        {
          "internalType": "address",
          "name": "",
          "type": "address"
        }
      ],
      "stateMutability": "view",
      "type": "function",
      "constant": true
    },
    {
      "inputs": [
        {
          "internalType": "address",
          "name": "_to",
          "type": "address"
        },
        {
          "internalType": "uint256",
          "name": "_value",
          "type": "uint256"
        }
      ],
      "name": "transfer",
      "outputs": [
        {
          "internalType": "bool",
          "name": "success",
          "type": "bool"
        }
      ],
      "stateMutability": "nonpayable",
      "type": "function"
    },
    {
      "inputs": [
        {
          "internalType": "address",
          "name": "_from",
          "type": "address"
        },
        {
          "internalType": "address",
          "name": "_to",
          "type": "address"
        },
        {
          "internalType": "uint256",
          "name": "_value",
          "type": "uint256"
        }
      ],
      "name": "transferFrom",
      "outputs": [
        {
          "internalType": "bool",
          "name": "success",
          "type": "bool"
        }
      ],
      "stateMutability": "nonpayable",
      "type": "function"
    },
    {
      "inputs": [
        {
          "internalType": "address",
          "name": "_spender",
          "type": "address"
        },
        {
          "internalType": "uint256",
          "name": "_value",
          "type": "uint256"
        }
      ],
      "name": "approve",
      "outputs": [
        {
          "internalType": "bool",
          "name": "success",
          "type": "bool"
        }
      ],
      "stateMutability": "nonpayable",
      "type": "function"
    },
    {
      "inputs": [
        {
          "internalType": "address",
          "name": "_owner",
          "type": "address"
        },
        {
          "internalType": "address",
          "name": "_spender",
          "type": "address"
        }
      ],
      "name": "allowance",
      "outputs": [
        {
          "internalType": "uint256",
          "name": "remaining",
          "type": "uint256"
        }
      ],
      "stateMutability": "view",
      "type": "function",
      "constant": true
    }
  ],
  "bytecode": "0x60806040523480156200001157600080fd5b506040518060400160405280600381526020017f5249430000000000000000000000000000000000000000000000000000000000815250600090805190602001906200005f92919062000162565b506040518060400160405280600781526020017f5269636172646f0000000000000000000000000000000000000000000000000081525060019080519060200190620000ad92919062000162565b506000600260006101000a81548160ff021916908360ff160217905550620f424060038190555033600460006101000a81548173ffffffffffffffffffffffffffffffffffffffff021916908373ffffffffffffffffffffffffffffffffffffffff160217905550620f4240600560003373ffffffffffffffffffffffffffffffffffffffff1673ffffffffffffffffffffffffffffffffffffffff1681526020019081526020016000208190555062000277565b828054620001709062000241565b90600052602060002090601f016020900481019282620001945760008555620001e0565b82601f10620001af57805160ff1916838001178555620001e0565b82800160010185558215620001e0579182015b82811115620001df578251825591602001919060010190620001c2565b5b509050620001ef9190620001f3565b5090565b5b808211156200020e576000816000905550600101620001f4565b5090565b7f4e487b7100000000000000000000000000000000000000000000000000000000600052602260045260246000fd5b600060028204905060018216806200025a57607f821691505b6020821081141562000271576200027062000212565b5b50919050565b610f3980620002876000396000f3fe608060405234801561001057600080fd5b506004361061009e5760003560e01c806370a082311161006657806370a082311461015d578063893d20e81461018d57806395d89b41146101ab578063a9059cbb146101c9578063dd62ed3e146101f95761009e565b806306fdde03146100a3578063095ea7b3146100c157806318160ddd146100f157806323b872dd1461010f578063313ce5671461013f575b600080fd5b6100ab610229565b6040516100b89190610b6d565b60405180910390f35b6100db60048036038101906100d69190610c28565b6102bb565b6040516100e89190610c83565b60405180910390f35b6100f9610394565b6040516101069190610cad565b60405180910390f35b61012960048036038101906101249190610cc8565b61039e565b6040516101369190610c83565b60405180910390f35b61014761071e565b6040516101549190610d37565b60405180910390f35b61017760048036038101906101729190610d52565b610735565b6040516101849190610cad565b60405180910390f35b61019561077e565b6040516101a29190610d8e565b60405180910390f35b6101b36107a8565b6040516101c09190610b6d565b60405180910390f35b6101e360048036038101906101de9190610c28565b61083a565b6040516101f09190610c83565b60405180910390f35b610213600480360381019061020e9190610da9565b610a21565b6040516102209190610cad565b60405180910390f35b60606001805461023890610e18565b80601f016020809104026020016040519081016040528092919081815260200182805461026490610e18565b80156102b15780601f10610286576101008083540402835291602001916102b1565b820191906000526020600020905b81548152906001019060200180831161029457829003601f168201915b5050505050905090565b600081600560003373ffffffffffffffffffffffffffffffffffffffff1673ffffffffffffffffffffffffffffffffffffffff16815260200190815260200160002054101561030957600080fd5b81600660003373ffffffffffffffffffffffffffffffffffffffff1673ffffffffffffffffffffffffffffffffffffffff16815260200190815260200160002060008573ffffffffffffffffffffffffffffffffffffffff1673ffffffffffffffffffffffffffffffffffffffff168152602001908152602001600020819055506001905092915050565b6000600354905090565b600081600560008673ffffffffffffffffffffffffffffffffffffffff1673ffffffffffffffffffffffffffffffffffffffff1681526020019081526020016000205410156103ec57600080fd5b81600660008673ffffffffffffffffffffffffffffffffffffffff1673ffffffffffffffffffffffffffffffffffffffff16815260200190815260200160002060008573ffffffffffffffffffffffffffffffffffffffff1673ffffffffffffffffffffffffffffffffffffffff16815260200190815260200160002054101561047557600080fd5b61050482600660008773ffffffffffffffffffffffffffffffffffffffff1673ffffffffffffffffffffffffffffffffffffffff16815260200190815260200160002060008673ffffffffffffffffffffffffffffffffffffffff1673ffffffffffffffffffffffffffffffffffffffff16815260200190815260200160002054610aa890919063ffffffff16565b600660008673ffffffffffffffffffffffffffffffffffffffff1673ffffffffffffffffffffffffffffffffffffffff16815260200190815260200160002060008573ffffffffffffffffffffffffffffffffffffffff1673ffffffffffffffffffffffffffffffffffffffff168152602001908152602001600020819055506105d682600560008773ffffffffffffffffffffffffffffffffffffffff1673ffffffffffffffffffffffffffffffffffffffff16815260200190815260200160002054610aa890919063ffffffff16565b600560008673ffffffffffffffffffffffffffffffffffffffff1673ffffffffffffffffffffffffffffffffffffffff1681526020019081526020016000208190555061066b82600560008673ffffffffffffffffffffffffffffffffffffffff1673ffffffffffffffffffffffffffffffffffffffff16815260200190815260200160002054610abe90919063ffffffff16565b600560008573ffffffffffffffffffffffffffffffffffffffff1673ffffffffffffffffffffffffffffffffffffffff168152602001908152602001600020819055508273ffffffffffffffffffffffffffffffffffffffff168473ffffffffffffffffffffffffffffffffffffffff167fddf252ad1be2c89b69c2b068fc378daa952ba7f163c4a11628f55a4df523b3ef8460405161070b9190610cad565b60405180910390a3600190509392505050565b6000600260009054906101000a900460ff16905090565b6000600560008373ffffffffffffffffffffffffffffffffffffffff1673ffffffffffffffffffffffffffffffffffffffff168152602001908152602001600020549050919050565b6000600460009054906101000a900473ffffffffffffffffffffffffffffffffffffffff16905090565b6060600080546107b790610e18565b80601f01602080910402602001604051908101604052809291908181526020018280546107e390610e18565b80156108305780601f1061080557610100808354040283529160200191610830565b820191906000526020600020905b81548152906001019060200180831161081357829003601f168201915b5050505050905090565b600081600560003373ffffffffffffffffffffffffffffffffffffffff1673ffffffffffffffffffffffffffffffffffffffff16815260200190815260200160002054101561088857600080fd5b6108da82600560003373ffffffffffffffffffffffffffffffffffffffff1673ffffffffffffffffffffffffffffffffffffffff16815260200190815260200160002054610aa890919063ffffffff16565b600560003373ffffffffffffffffffffffffffffffffffffffff1673ffffffffffffffffffffffffffffffffffffffff1681526020019081526020016000208190555061096f82600560008673ffffffffffffffffffffffffffffffffffffffff1673ffffffffffffffffffffffffffffffffffffffff16815260200190815260200160002054610abe90919063ffffffff16565b600560008573ffffffffffffffffffffffffffffffffffffffff1673ffffffffffffffffffffffffffffffffffffffff168152602001908152602001600020819055508273ffffffffffffffffffffffffffffffffffffffff163373ffffffffffffffffffffffffffffffffffffffff167fddf252ad1be2c89b69c2b068fc378daa952ba7f163c4a11628f55a4df523b3ef84604051610a0f9190610cad565b60405180910390a36001905092915050565b6000600660008473ffffffffffffffffffffffffffffffffffffffff1673ffffffffffffffffffffffffffffffffffffffff16815260200190815260200160002060008373ffffffffffffffffffffffffffffffffffffffff1673ffffffffffffffffffffffffffffffffffffffff16815260200190815260200160002054905092915050565b60008183610ab69190610e79565b905092915050565b60008183610acc9190610ead565b905092915050565b600081519050919050565b600082825260208201905092915050565b60005b83811015610b0e578082015181840152602081019050610af3565b83811115610b1d576000848401525b50505050565b6000601f19601f8301169050919050565b6000610b3f82610ad4565b610b498185610adf565b9350610b59818560208601610af0565b610b6281610b23565b840191505092915050565b60006020820190508181036000830152610b878184610b34565b905092915050565b600080fd5b600073ffffffffffffffffffffffffffffffffffffffff82169050919050565b6000610bbf82610b94565b9050919050565b610bcf81610bb4565b8114610bda57600080fd5b50565b600081359050610bec81610bc6565b92915050565b6000819050919050565b610c0581610bf2565b8114610c1057600080fd5b50565b600081359050610c2281610bfc565b92915050565b60008060408385031215610c3f57610c3e610b8f565b5b6000610c4d85828601610bdd565b9250506020610c5e85828601610c13565b9150509250929050565b60008115159050919050565b610c7d81610c68565b82525050565b6000602082019050610c986000830184610c74565b92915050565b610ca781610bf2565b82525050565b6000602082019050610cc26000830184610c9e565b92915050565b600080600060608486031215610ce157610ce0610b8f565b5b6000610cef86828701610bdd565b9350506020610d0086828701610bdd565b9250506040610d1186828701610c13565b9150509250925092565b600060ff82169050919050565b610d3181610d1b565b82525050565b6000602082019050610d4c6000830184610d28565b92915050565b600060208284031215610d6857610d67610b8f565b5b6000610d7684828501610bdd565b91505092915050565b610d8881610bb4565b82525050565b6000602082019050610da36000830184610d7f565b92915050565b60008060408385031215610dc057610dbf610b8f565b5b6000610dce85828601610bdd565b9250506020610ddf85828601610bdd565b9150509250929050565b7f4e487b7100000000000000000000000000000000000000000000000000000000600052602260045260246000fd5b60006002820490506001821680610e3057607f821691505b60208210811415610e4457610e43610de9565b5b50919050565b7f4e487b7100000000000000000000000000000000000000000000000000000000600052601160045260246000fd5b6000610e8482610bf2565b9150610e8f83610bf2565b925082821015610ea257610ea1610e4a565b5b828203905092915050565b6000610eb882610bf2565b9150610ec383610bf2565b9250827fffffffffffffffffffffffffffffffffffffffffffffffffffffffffffffffff03821115610ef857610ef7610e4a565b5b82820190509291505056fea26469706673582212207abbc2cec265065d536c5cc256669382522df5e7d2be9f0faa94814f929cbdab64736f6c634300080b0033",
  "immutableReferences": {},
  "source": "// SPDX-License-Identifier: MIT\npragma solidity ^0.8.11;\n\n\nlibrary SafeMath {\n    /**\n     * @dev Returns the addition of two unsigned integers, with an overflow flag.\n     *\n     * _Available since v3.4._\n     */\n    function tryAdd(uint256 a, uint256 b) internal pure returns (bool, uint256) {\n        unchecked {\n            uint256 c = a + b;\n            if (c < a) return (false, 0);\n            return (true, c);\n        }\n    }\n\n    /**\n     * @dev Returns the subtraction of two unsigned integers, with an overflow flag.\n     *\n     * _Available since v3.4._\n     */\n    function trySub(uint256 a, uint256 b) internal pure returns (bool, uint256) {\n        unchecked {\n            if (b > a) return (false, 0);\n            return (true, a - b);\n        }\n    }\n\n    /**\n     * @dev Returns the multiplication of two unsigned integers, with an overflow flag.\n     *\n     * _Available since v3.4._\n     */\n    function tryMul(uint256 a, uint256 b) internal pure returns (bool, uint256) {\n        unchecked {\n            // Gas optimization: this is cheaper than requiring 'a' not being zero, but the\n            // benefit is lost if 'b' is also tested.\n            // See: https://github.com/OpenZeppelin/openzeppelin-contracts/pull/522\n            if (a == 0) return (true, 0);\n            uint256 c = a * b;\n            if (c / a != b) return (false, 0);\n            return (true, c);\n        }\n    }\n\n    /**\n     * @dev Returns the division of two unsigned integers, with a division by zero flag.\n     *\n     * _Available since v3.4._\n     */\n    function tryDiv(uint256 a, uint256 b) internal pure returns (bool, uint256) {\n        unchecked {\n            if (b == 0) return (false, 0);\n            return (true, a / b);\n        }\n    }\n\n    /**\n     * @dev Returns the remainder of dividing two unsigned integers, with a division by zero flag.\n     *\n     * _Available since v3.4._\n     */\n    function tryMod(uint256 a, uint256 b) internal pure returns (bool, uint256) {\n        unchecked {\n            if (b == 0) return (false, 0);\n            return (true, a % b);\n        }\n    }\n\n    /**\n     * @dev Returns the addition of two unsigned integers, reverting on\n     * overflow.\n     *\n     * Counterpart to Solidity's `+` operator.\n     *\n     * Requirements:\n     *\n     * - Addition cannot overflow.\n     */\n    function add(uint256 a, uint256 b) internal pure returns (uint256) {\n        return a + b;\n    }\n\n    /**\n     * @dev Returns the subtraction of two unsigned integers, reverting on\n     * overflow (when the result is negative).\n     *\n     * Counterpart to Solidity's `-` operator.\n     *\n     * Requirements:\n     *\n     * - Subtraction cannot overflow.\n     */\n    function sub(uint256 a, uint256 b) internal pure returns (uint256) {\n        return a - b;\n    }\n\n    /**\n     * @dev Returns the multiplication of two unsigned integers, reverting on\n     * overflow.\n     *\n     * Counterpart to Solidity's `*` operator.\n     *\n     * Requirements:\n     *\n     * - Multiplication cannot overflow.\n     */\n    function mul(uint256 a, uint256 b) internal pure returns (uint256) {\n        return a * b;\n    }\n\n    /**\n     * @dev Returns the integer division of two unsigned integers, reverting on\n     * division by zero. The result is rounded towards zero.\n     *\n     * Counterpart to Solidity's `/` operator.\n     *\n     * Requirements:\n     *\n     * - The divisor cannot be zero.\n     */\n    function div(uint256 a, uint256 b) internal pure returns (uint256) {\n        return a / b;\n    }\n\n    /**\n     * @dev Returns the remainder of dividing two unsigned integers. (unsigned integer modulo),\n     * reverting when dividing by zero.\n     *\n     * Counterpart to Solidity's `%` operator. This function uses a `revert`\n     * opcode (which leaves remaining gas untouched) while Solidity uses an\n     * invalid opcode to revert (consuming all remaining gas).\n     *\n     * Requirements:\n     *\n     * - The divisor cannot be zero.\n     */\n    function mod(uint256 a, uint256 b) internal pure returns (uint256) {\n        return a % b;\n    }\n\n    /**\n     * @dev Returns the subtraction of two unsigned integers, reverting with custom message on\n     * overflow (when the result is negative).\n     *\n     * CAUTION: This function is deprecated because it requires allocating memory for the error\n     * message unnecessarily. For custom revert reasons use {trySub}.\n     *\n     * Counterpart to Solidity's `-` operator.\n     *\n     * Requirements:\n     *\n     * - Subtraction cannot overflow.\n     */\n    function sub(\n        uint256 a,\n        uint256 b,\n        string memory errorMessage\n    ) internal pure returns (uint256) {\n        unchecked {\n            require(b <= a, errorMessage);\n            return a - b;\n        }\n    }\n\n    /**\n     * @dev Returns the integer division of two unsigned integers, reverting with custom message on\n     * division by zero. The result is rounded towards zero.\n     *\n     * Counterpart to Solidity's `/` operator. Note: this function uses a\n     * `revert` opcode (which leaves remaining gas untouched) while Solidity\n     * uses an invalid opcode to revert (consuming all remaining gas).\n     *\n     * Requirements:\n     *\n     * - The divisor cannot be zero.\n     */\n    function div(\n        uint256 a,\n        uint256 b,\n        string memory errorMessage\n    ) internal pure returns (uint256) {\n        unchecked {\n            require(b > 0, errorMessage);\n            return a / b;\n        }\n    }\n\n    /**\n     * @dev Returns the remainder of dividing two unsigned integers. (unsigned integer modulo),\n     * reverting with custom message when dividing by zero.\n     *\n     * CAUTION: This function is deprecated because it requires allocating memory for the error\n     * message unnecessarily. For custom revert reasons use {tryMod}.\n     *\n     * Counterpart to Solidity's `%` operator. This function uses a `revert`\n     * opcode (which leaves remaining gas untouched) while Solidity uses an\n     * invalid opcode to revert (consuming all remaining gas).\n     *\n     * Requirements:\n     *\n     * - The divisor cannot be zero.\n     */\n    function mod(\n        uint256 a,\n        uint256 b,\n        string memory errorMessage\n    ) internal pure returns (uint256) {\n        unchecked {\n            require(b > 0, errorMessage);\n            return a % b;\n        }\n    }\n}\n\n\n\n\n\n/* CONTRACT */\ncontract Ricardo{\nusing SafeMath for uint256;\n/* VARIABLES */\nstring private _symbol;\nstring private _name;\nuint8 private _decimals;\nuint256 private _totalSupply;\naddress private _admin;\nmapping(address => uint256) private _balanceOf;\nmapping(address => mapping(address => uint256)) private _allowance;\n/* CONSTRUCTOR */\nconstructor(){\n    _symbol=\"RIC\";\n    _name=\"Ricardo\";\n    _decimals=0;\n    _totalSupply=1000000;\n    _admin=msg.sender;\n    _balanceOf[msg.sender]=1000000;\n}\n\n/* TRANSFER EVENT */\nevent Transfer(address indexed _from, address indexed _to, uint256 _value);\n/* APPROVAL EVENT */\nevent Approval(address indexed _owner, address indexed _spender, uint256 _value);\n\n/* FUNCTION TO RETRIEVE THE NAME */\nfunction name() public view returns (string memory){\nreturn _name;\n}\n/* FUNCTION TO RETRIEVE SYMBOL */\nfunction symbol() public view returns(string memory){\n    return _symbol;\n}\n/* FUNCTION TO RETRIEVE DECIMALS */\nfunction decimals() public view returns (uint8){\n    return _decimals;\n}\n/* FUNCTION TO RETRIEVE totalSupply */\nfunction totalSupply() public view returns (uint256){\n    return _totalSupply;\n}\n/* FUNCTION TO RETRIEVE balanceOf */\nfunction balanceOf(address _owner) public view returns (uint256 balance){\n    return _balanceOf[_owner];\n}\n/* FUNCTION TO RETRIEVE OWNER */\nfunction getOwner() external view returns (address){\n    return _admin;\n}\n/* FUNCTION TO TRANSFER */\nfunction transfer(address _to, uint256 _value) public returns (bool success){\n    /* CHECK IF HE WAS ENOUGH TOKENS */\n    require(_balanceOf[msg.sender] >= _value);\n    /* TRANSFER ITSELF */\n    _balanceOf[msg.sender] = _balanceOf[msg.sender].sub(_value);\n    _balanceOf[_to] = _balanceOf[_to].add(_value);\n    /* TRANSFER EVENT */\n    emit Transfer(msg.sender,_to,_value);\n    /* RETURN TRUE */\n    return true;\n}\n\nfunction transferFrom(address _from, address _to, uint256 _value) public returns (bool success){\n/* CHECK IF HE WAS ENOUGH TOKENS */\nrequire(_balanceOf[_from] >= _value);\n/* CHECK IF THE ALLOWANCE IS ENOUGHT */\nrequire(_allowance[_from][_to]>=_value);\n/* ESTABLISH THE NEW ALLOWANCE BALANCE */\n_allowance[_from][_to]=_allowance[_from][_to].sub(_value);\n/* MAKE THE TRANSFER */\n_balanceOf[_from]=_balanceOf[_from].sub(_value);\n_balanceOf[_to]=_balanceOf[_to].add(_value);\n/* EMIT THE EVENT */\nemit Transfer(_from, _to, _value);\n/* RETURN TRUE */\nreturn true;   \n}\n/* FUNCTION TO APPROVE THE ALLOWANCE */\nfunction approve(address _spender, uint256 _value) public returns (bool success){\n/* REQUIRE THAT HAS ENOUGH TOKENS */\nrequire(_balanceOf[msg.sender]>=_value);\n/* MAKE THE ALLOWANCE CAME TRUE */\n_allowance[msg.sender][_spender]=_value;\n/* RETURN TRUE */\nreturn true;   \n}\n/* RETURN THE MUCH AN CERTAIN USER CAN ALLOW TO SPEND */\nfunction allowance(address _owner, address _spender) public view returns (uint256 remaining){\nreturn _allowance[_owner][_spender];\n}\n\n}",
  "sourcePath": "/home/pedromn35/Desktop/smartcontracts/Bep20-token/contracts/Ricardo.sol",
  "compiler": {
    "name": "solc",
    "version": "0.8.11+commit.d7f03943.Emscripten.clang"
  },
  "schemaVersion": "3.4.7",
  "updatedAt": "2022-06-17T12:40:02.005Z",
  "networkType": "ethereum",
  "devdoc": {
    "kind": "dev",
    "methods": {},
    "version": 1
  },
  "userdoc": {
    "kind": "user",
    "methods": {},
    "version": 1
  }
}